:100000000C943E000C9453000C9453000C94530039
:100010000C9453000C9453000C9453000C94530014
:100020000C9453000C9453000C9453000C94530004
:100030000C9453000C9453000C9453000C945300F4
:100040000C9453000C9453000C9453000C945300E4
:100050000C9453000C9453000C9453000C945300D4
:100060000C9453000C9453000C9453000C945300C4
:100070000C9453000C9453000C94530011241FBE95
:10008000CFEFD0E1DEBFCDBF11E0A0E0B1E0E6E709
:10009000F1E002C005900D92A631B107D9F70E9498
:1000A00082000C94B9000C94000081E890E09093D9
:1000B000C5008093C40088E08093C1000895E0ECFF
:1000C000F0E0908195FFFDCF8093C60008950F93D7
:1000D0001F93CF93DF93FC0101900020E9F7319744
:1000E000DE2FD81B51F08C01C0E0F80181918F0107
:1000F0000E945F00CF5FDC13F8CFDF91CF911F919B
:100100000F9108950E94550080E091E00E946700E1
:100110002FEF88E09DE3215080409040E1F700C040
:10012000000084E091E00E9467002FEF88E09DE3EB
:10013000215080409040E1F700C000008BE091E04A
:100140000E9467002FEF88E09DE32150804090409F
:10015000E1F700C0000080E191E00E9467002FEF0E
:1001600088E09DE3215080409040E1F700C000000E
:06017000FFCFF894FFCF61
:1001760024242400534D2C310D0A0057520D0A0039
:06018600522C310D0A00AD
:00000001FF
