S01500004D6F746F725F636F6E74726F6C2E737265639E
S11300000C943E000C9448000C9448000C94480056
S11300100C9448000C9448000C9448000C9448003C
S11300200C9448000C9448000C9448000C9448002C
S11300300C9448000C9448000C9448000C9448001C
S11300400C9448000C9448000C9448000C9448000C
S11300500C9448000C9448000C9448000C944800FC
S11300600C9448000C9448000C9448000C944800EC
S11300700C9448000C9448000C94480011241FBEB2
S1130080CFEFD0E1DEBFCDBF0E946F000C94CD0056
S11300900C940000289A29982A9A2B982C9A2D9827
S11300A02E9A2F9808952898299A2A982B9A2C9852
S11300B02D9A2E982F9A0895289A29982C9A2D983B
S11300C085B1837385B908952A9A2B982E9A2F980F
S11300D085B18C7C85B9089585B115B8089584B12E
S11300E08FEF84B90E946C000E944A002FEF81E1D7
S11300F09AE7215080409040E1F700C000000E9440
S11301006C002FEF88E09DE3215080409040E1F7A0
S113011000C000000E9453002FEF81E19AE72150B4
S113012080409040E1F700C000000E946C002FEF77
S113013088E09DE3215080409040E1F700C000003A
S11301400E945C002FEF81E19AE7215080409040AB
S1130150E1F700C000000E946C002FEF88E09DE3EF
S1130160215080409040E1F700C000000E946400EC
S11301702FEF81E19AE7215080409040E1F700C0E1
S113018000000E946C002FEF88E09DE32150804026
S11101909040E1F700C00000A7CFF894FFCF25
S9030000FC
